:020000040800F2
:10000000FF4F0020550300082502000827020008C2
:10001000290200082B0200082D0200080000000041
:100020000000000000000000000000002F02000897
:100030003102000800000000330200083502000809
:100040009903000899030008990300089903000820
:100050009903000899030008990300089903000810
:100060009903000899030008990300089903000800
:1000700099030008990300089903000899030008F0
:1000800099030008990300089903000899030008E0
:1000900099030008990300089903000899030008D0
:1000A00099030008990300089903000899030008C0
:1000B00099030008990300089903000899030008B0
:1000C00099030008990300089903000899030008A0
:1000D0009903000899030008990300089903000890
:1000E000990300089903000899030008FFFFFFFF28
:1000F000FFFFFFFFFFFFFFFFFFFFFFFFFFFFFFFF10
:0C01000099030008FFFFFFFF5FF808F103
:10010C000348044B834202D0034B03B1184770479A
:10011C0004000020040000200000000005480649EF
:10012C000B1AD90F01EBA301491002D0034B03B1F9
:10013C001847704704000020040000200000000055
:10014C0010B5064C237843B9FFF7DAFF044B13B113
:10015C000448AFF300800123237010BD040000207D
:10016C00000000009C03000808B5044B1BB10449B7
:10017C000448AFF30080BDE80840CFE70000000062
:10018C00080000209C030008204A136843F0010378
:10019C001360002301331D4A126812F0020F02D1C2
:1001AC00B3F5A06FF6D1194B1B6813F0020F00D1F9
:1001BC00FEE7164B5A685A605A685A605A6842F4FD
:1001CC0080625A605A6822F0036222F440225A601C
:1001DC005A6842F420125A601A6842F080721A600F
:1001EC000A4B1B6813F0007FFAD0084B5A6822F0B8
:1001FC0003025A605A6842F002025A60034B5B6871
:10020C0003F00C03082BF9D1704700BF001002401B
:10021C0008B5FFF7B9FF08BD7047FEE7FEE7FEE73C
:10022C00FEE7704770477047704700000C4B1B6827
:10023C000C4AA2FB03239B09013BB3F1807F0DD237
:10024C004FF0E0225361084BF02183F8231000217A
:10025C0091610720106183F823107047FEE700BFFF
:10026C0000000020D34D621000ED00E008B5FFF750
:10027C00DDFFFEE721F0604121F07F010143024BDD
:10028C009960BFF34F8F704700ED00E000B583B06D
:10029C002B4A136843F001031360294B1B6813F0BE
:1002AC00020FFAD0264A536843F0800353600023B0
:1002BC00019302E0019B01330193019B4F2BF9D970
:1002CC001F4A536843F0900353600023019302E0EC
:1002DC00019B01330193019B4F2BF9D9184B5A68A1
:1002EC0022F003025A601A6822F0847222F48032DF
:1002FC001A605968134A0A405A601A6822F08472CC
:10030C0022F480321A601A6822F480221A605A6829
:10031C0022F00F6222F470225A601A6822F0847262
:10032C0022F480321A604FF41F029A60FFF770FFBC
:10033C0000214FF00060FFF79DFF03B05DF804FB58
:10034C00001002400C00FFE8002103E00A4B5B5850
:10035C004350043109480A4B42189A42F6D3094AD1
:10036C0002E0002342F8043B074B9A42F9D3FFF713
:10037C008DFFFFF77BFF7047BC03000800000020D7
:10038C00040000200400002020000020FEE70000F4
:10039C00F8B500BFF8BC08BC9E467047F8B500BF66
:0803AC00F8BC08BC9E46704736
:0403B40075010008C7
:0403B8004D010008EB
:0403BC00006CDC02F3
:040000050800035597
:00000001FF
